:100000000C9456000C9468000C9468000C946800E2
:100010000C9468000C9468000C9468000C946800C0
:100020000C9468000C9468000C9468000C946800B0
:100030000C9468000C9468000C9468000C946800A0
:100040000C9468000C9468000C9468000C94680090
:100050000C9468000C946A000C9468000C9468007E
:100060000C9468000C94AC000C94E3000C946800B1
:100070000C9468000C9468000C9468000C94680060
:100080000C9468000C9468000C9468000C94680050
:100090000C9468000C9468000C9468000C94680040
:1000A0000C9468000C9468000C94680011241FBE26
:1000B000CFEFDAE0DEBFCDBF21E0A0E0B1E001C0CC
:1000C0001D92A838B207E1F70E949D000C94C5026A
:1000D0000C9400001F920F920FB60F9211248F9371
:1000E0009F938091010190910201019690930201EA
:1000F000809301018091010190910201499760F084
:10010000809101019091020149979093020180939F
:10011000010181E0809300019F918F910F900FBEAC
:100120000F901F90189582E084BD93E095BD809359
:100130006E0089EF87BD7894089520E034E244EFA3
:1001400050E060E472E48FE090E00E9414010E94AD
:10015000930080910001FDCF1F920F920FB60F9276
:1001600011242F933F938F939F93EF93FF9380914D
:1001700005018F5F80930501809106019091070131
:100180009C012F5F3F4F3093070120930601209180
:10019000CE00FC01E85FFE4F208380910601909124
:1001A00007018034910520F010920701109206019A
:1001B000FF91EF919F918F913F912F910F900FBEE3
:1001C0000F901F9018951F920F920FB60F92112447
:1001D0008F93EF93FF9380910301811106C0E9ECA7
:1001E000F0E080818F7D808317C080910301815072
:1001F00080930301E091040181E08E0F809304015C
:10020000F0E0E85BFE4F80818093CE008091040196
:10021000803410F010920401FF91EF918F910F90B4
:100220000FBE0F901F901895CF92DF92EF92FF9222
:100230006B017C01C11482ECD80681E0E806F10470
:1002400020F1E8ECF0E0808182608083CA01B9018E
:10025000689412F896958795779567951694D1F7D7
:10026000A70196010E94A302CA01B9010E941502CA
:1002700020E030E040E05FE30E9479010E94E60167
:100280007093CD006093CC0023C0E8ECF0E0808157
:100290008D7F8083CA01B901689413F8969587957C
:1002A000779567951694D1F7A70196010E94A3024E
:1002B000CA01B9010E94150220E030E040E05FE38E
:1002C0000E9479010E94E6017093CD006093CC00FA
:1002D000E9ECF0E080818861808378948081806897
:1002E0008083808180628083FF90EF90DF90CF9049
:1002F00008955058BB27AA270E9491010C946902C7
:100300000E945B0238F00E94620220F039F49F3FA5
:1003100019F426F40C9458020EF4E095E7FB0C94C3
:100320005202E92F0E947A0258F3BA176207730744
:100330008407950720F079F4A6F50C949C020EF43E
:10034000E0950B2EBA2FA02D0B01B90190010C01E5
:10035000CA01A0011124FF27591B99F0593F50F4FD
:10036000503E68F11A16F040A22F232F342F442755
:10037000585FF3CF469537952795A795F04053954D
:10038000C9F77EF41F16BA0B620B730B840BBAF01D
:100390009150A1F0FF0FBB1F661F771F881FC2F788
:1003A0000EC0BA0F621F731F841F48F4879577959C
:1003B0006795B795F7959E3F08F0B0CF9395880F56
:1003C00008F09927EE0F9795879508950E9482026D
:1003D00088F09F5798F0B92F9927B751B0F0E1F006
:1003E000660F771F881F991F1AF0BA95C9F714C0B6
:1003F000B13091F00E949C02B1E008950C949C02EF
:10040000672F782F8827B85F39F0B93FCCF38695EE
:1004100077956795B395D9F73EF49095809570954B
:1004200061957F4F8F4F9F4F0895E89409C097FBC8
:100430003EF490958095709561957F4F8F4F9F4FBB
:100440009923A9F0F92F96E9BB279395F6958795FF
:1004500077956795B795F111F8CFFAF4BB0F11F4C2
:1004600060FF1BC06F5F7F4F8F4F9F4F16C0882369
:1004700011F096E911C0772321F09EE8872F762F9F
:1004800005C0662371F096E8862F70E060E02AF0E0
:100490009A95660F771F881FDAF7880F96958795CC
:1004A00097F9089597F99F6780E870E060E00895F4
:1004B0009FEF80EC089500240A941616170618067C
:1004C0000906089500240A94121613061406050658
:1004D0000895092E0394000C11F4882352F0BB0FE9
:1004E00040F4BF2B11F460FF04C06F5F7F4F8F4F4C
:1004F0009F4F089557FD9058440F551F59F05F3F87
:1005000071F04795880F97FB991F61F09F3F79F035
:1005100087950895121613061406551FF2CF4695B7
:10052000F1DF08C0161617061806991FF1CF869539
:100530007105610508940895E894BB27662777271D
:10054000CB0197F90895A1E21A2EAA1BBB1BFD014E
:100550000DC0AA1FBB1FEE1FFF1FA217B307E407A2
:10056000F50720F0A21BB30BE40BF50B661F771FFA
:10057000881F991F1A9469F76095709580959095DA
:0E0580009B01AC01BD01CF010895F894FFCF9F
:00000001FF
