:100000009BC00000B5C00000B3C00000B1C000003C
:10001000AFC00000ADC00000ABC00000A9C0000030
:10002000A7C00000A5C000008DC5000056C6000096
:100030009FC000009DC000009BC0000099C0000050
:1000400097C0000095C0000093C0000091C0000060
:100050008FC000008EC000008BC0000089C000006F
:1000600087C00000ABC20000E0C2000081C00000F9
:100070007FC000007DC000007BC0000079C0000090
:1000800077C0000075C0000073C0000071C00000A0
:100090006FC000006DC000006BC0000069C00000B0
:1000A00067C0000065C0000063C000001C034C0076
:1000B000550046004100200043004400430020005A
:1000C000440065006D006F000000180344006500E7
:1000D00061006E002000430061006D006500720049
:1000E000610000000403090409023E00020100C08F
:1000F000320904000001020201000524001001047D
:100100002402060524060001070582030800FF09F2
:10011000040100020A000000070504024000050770
:100120000583024000051201100102000008EB03E4
:10013000442001000102DC0111241FBECFEFDAE0F0
:10014000DEBFCDBF11E0A0E0B1E0E4E3F6E102C024
:1001500005900D92AE30B107D9F722E0AEE0B1E0E4
:1001600001C01D92AC30B207E1F739D10C94180BE5
:1001700047CF1F920F920FB60F9211248F939F9328
:1001800080911C0190911D01019690931D01809317
:100190001C018091190190911A01019690931A0106
:1001A0008093190180911C0190911D01499760F085
:1001B00080911C0190911D01499790931D0180939E
:1001C0001C0181E080931B018091190190911A011B
:1001D000C29760F08091190190911A01C297909393
:1001E0001A018093190181E0809318019F918F91EA
:1001F0000F900FBE0F901F90189580917E01813057
:1002000039F018F0823071F00895109226010895A7
:100210001B990CC08091270190E090931501809369
:10022000140108958091270180931301089581306E
:1002300059F028F0823059F0833049F10895109236
:1002400015011092140108958FEF90E022C0809163
:100250001401909115018230910518F421E030E0ED
:1002600005C08F3F910530F02FEF3FEF309308012D
:100270002093070120911801222379F01092180190
:100280002091070130910801820F931F02C081E085
:1002900090E09093150180931401089590917D0151
:1002A0009230C9F018F4913069F004C09330E9F04D
:1002B000943059F18C33B9F581E080937D0110922F
:1002C0001201089580937C01803118F010927D0115
:1002D000089582E007C080937E0180917C0188238D
:1002E00091F083E080937D010895E091120191E007
:1002F0009E0F90931201F0E0E95DFE4F80838091A4
:100300007C01981310C084E0EDCF10927D018E33F4
:1003100009F473CF8091100190911101019690938F
:10032000110180931001089582E88093C00084E059
:100330008093C1008EEF8093D1001092CF0008957A
:1003400084B7877F84BF0FB6F894A895809160002A
:10035000886180936000109260000FBE549A90E014
:1003600080E80FB6F89480936100909361000FBE0F
:1003700004D1DADF3F9A2B9AC8C3809103028430FC
:1003800039F48093E9008091F3008091F2000895A0
:1003900080E00895CF93DF93209103022430D9F4B5
:1003A0002093E9004091F3002091F20030E0342BDB
:1003B000C62FD0E02C173D0708F4E901209749F03B
:1003C00040E050E0BE0192D18091E8008B778093AD
:1003D000E8008C2F01C080E0DF91CF910895B0DF5D
:1003E0007894C9E0D1E007E711E094E6E92EF12C1A
:1003F000CC24CA94D12CC1DF882309F469C060E4FD
:1004000087E391E0C7DF882309F462C08091370158
:1004100045DF1B9956C080911B01882309F454C005
:1004200010921B01C5D090E0209116013091170168
:1004300082179307A1F184E6B82EBAD02091160155
:1004400030911701280F311D3093170120931601A9
:10045000AFD02091140130911501280F311D309338
:10046000150120931401BA94B110E7CF80911601C1
:1004700090911701B701F0D57093170160931601A1
:10048000C901B701E9D56F3F710528F470931501D3
:100490006093140104C0D0921501C09214018091A0
:1004A00015018F93809114018F93DF93CF931F9346
:1004B0000F93E6D50F900F900F900F900F900F9025
:1004C00003C080911301B3DE809114018093CF00AB
:1004D000A9D591CF5C9808955C9A089542E061ECAB
:1004E00082E04CD242E361E883E048D242E360E834
:1004F00084E044D210920001109201011092020196
:1005000010920301089580910502813229F0823210
:1005100049F1803289F512C080910402813A61F577
:100520008091E800877F8093E80067E070E080E0DA
:1005300091E025D18091E8008B7711C08091040271
:100540008132D1F48091E800877F8093E80067E0F2
:1005500070E080E091E071D18091E8008E77809327
:10056000E800089580910402813231F48091E8001E
:10057000877F8093E80037C2089580E480937C00F1
:1005800087E880937A0080E880937B0081E0809305
:100590007E00089580917A00806480937A00809133
:1005A0007A0086FDFCCF80917800909179000895C3
:1005B000F1DF969587959695879508951F920F92EE
:1005C0000FB60F9211242F933F938F939F93EF9326
:1005D000FF93809122018F5F8093220180912401FB
:1005E000909125019C012F5F3F4F3093250120936F
:1005F00024012091CE00FC01E158FE4F2083809120
:100600002401909125018034910520F0109225015C
:1006100010922401FF91EF919F918F913F912F9123
:100620000F900FBE0F901F9018951F920F920FB64C
:100630000F9211248F93EF93FF9380911E018111EC
:1006400006C08091C9008F7D8093C90017C080913A
:100650001E01815080931E01E091210181E08E0FE7
:1006600080932101F0E0E154FE4F80818093CE0021
:1006700080912101803410F010922101FF91EF91BF
:100680008F910F900FBE0F901F901895292F332731
:100690002230310559F02330310569F02130310520
:1006A000E9F482E190E026E231E01CC08EE390E0C4
:1006B00028EE30E017C099278130910549F028F0E5
:1006C000029761F4ECEAF0E005C0E4EEF0E002C06D
:1006D000EAECF0E0849190E09F0104C080E090E0BB
:1006E00020E030E0FA01318320830895CF92DF9239
:1006F000EF92FF920F931F93CF93DF93EC018B0147
:100700007A0190D1811132C0E114F10439F0F7017E
:1007100080819181081B190BC80FD91FC12CD12CC6
:100720000115110511F18091E80085FD15C080913A
:10073000E8008B778093E800E114F10449F0F701B9
:1007400080819181C80ED91ED182C08285E00EC001
:1007500069D1882329F30AC08091F100899301505F
:100760001109FFEFCF1ADF0ADBCF80E0DF91CF91D5
:100770001F910F91FF90EF90DF90CF9008952091FF
:100780000A0230910B022617370748F061157105F0
:1007900039F42091E8002E772093E80001C0B901D8
:1007A000FC0120E06115710579F180910302882335
:1007B000F1F18530F1F18091E80083FD3CC080913A
:1007C000E80082FD2EC08091E80080FFEBCF2091F1
:1007D000F3008091F20090E0922B6115710551F0C9
:1007E0008830910538F421912093F100615071090E
:1007F0000196F3CF21E0089709F020E08091E8000E
:100800008E778093E800CECF2111CFCF0AC08091A0
:100810000302882361F0853061F08091E80083FD58
:100820000AC08091E80082FFF2CF80E0089582E064
:10083000089583E0089581E008956115710529F414
:100840002091E8002B772093E800FC0161157105E9
:1008500041F180910302882361F1853061F180913B
:10086000E80083FD24C08091E80082FFEFCF209153
:10087000F3008091F20090E0922B892B31F080916F
:10088000F10081936150710991F78091E8008B77B5
:100890008093E800DBCF80910302882351F08530FC
:1008A00051F08091E80080FFF6CF80E0089581E06C
:1008B000089582E0089583E0089520910A0230911E
:1008C0000B022617370748F06115710539F420919E
:1008D000E8002E772093E80001C0B901FC0120E078
:1008E0006115710591F180910302882309F440C0DC
:1008F000853009F43FC08091E80083FD3DC08091C0
:10090000E80082FD2FC08091E80080FFE9CF2091B0
:10091000F3008091F20090E0922B6115710559F07F
:100920008830910540F424912093F1003196615074
:1009300071090196F2CF21E0089709F020E080913B
:10094000E8008E778093E800CBCF2111CCCF0AC08E
:1009500080910302882361F0853061F08091E80086
:1009600083FD0AC08091E80082FFF2CF80E0089505
:1009700082E0089583E0089581E00895982F9730EC
:1009800068F59093E900981739F07091EC00209188
:10099000ED005091F00003C0242F762F50E021FD90
:1009A00002C09F5FECCF3091EB003E7F3093EB00B5
:1009B0003091ED003D7F3093ED003091EB003160E0
:1009C0003093EB007093EC002093ED005093F00017
:1009D0002091EE0027FDE5CF80E008958F70809391
:1009E000E90081E008958091040287FF11C08091A1
:1009F000E80082FD05C0809103028111F8CF11C08B
:100A00008091E8008B770BC080910302882349F026
:100A10008091E80080FFF8CF8091E8008E77809386
:100A2000E80008952091E4003091E50095E64091BA
:100A3000EC00842F817040FF23C08091E80080FD8E
:100A40001DC080910302882399F0853099F0809130
:100A5000EB0085FD11C04091E4005091E5002417A2
:100A6000350729F3915011F09A01E1CF84E0089500
:100A700082E0089583E0089581E0089580E008957C
:100A80004091E80042FFDDCF08950F931F93CF936D
:100A9000DF934BD052D0C8EDD0E088818F77888328
:100AA00088818068888388818F7D888319BC1092B3
:100AB00003021092FF01109201021092000200EE58
:100AC00010E0F80180818B7F80838881816088833A
:100AD00042E060E080E052DFE1EEF0E080818E7F76
:100AE0008083E2EEF0E08081816080838081886095
:100AF0008083F80180818E7F8083888180618883F4
:100B0000DF91CF911F910F910895E8EDF0E0808182
:100B10008F7E8083E7EDF0E080818160808384E0D8
:100B200082BF81E080930202B0CFE8EDF0E08081E7
:100B30008E7F80831092E20008951092DA00109266
:100B4000E10008951F920F920FB60F9211242F9378
:100B50003F934F935F936F937F938F939F93AF9345
:100B6000BF93EF93FF938091E10082FF0AC08091D1
:100B7000E20082FF06C08091E1008B7F8093E1005C
:100B800050D28091DA0080FF1DC08091D80080FF94
:100B900019C08091DA008E7F8093DA008091D900AD
:100BA00080FF0CC080E189BD82E189BD09B400FEEF
:100BB000FDCF81E0809303028DDC04C019BC10924C
:100BC00003028ADC8091E10080FF18C08091E2007E
:100BD00080FF14C08091E2008E7F8093E2008091BC
:100BE000E20080618093E2008091D800806280936F
:100BF000D80019BC85E08093030213D28091E100F4
:100C000084FF2FC08091E20084FF2BC080E189BD6A
:100C100082E189BD09B400FEFDCF8091D8008F7DAF
:100C20008093D8008091E1008F7E8093E1008091D5
:100C3000E2008F7E8093E2008091E20081608093E9
:100C4000E2008091FF01882311F084E007C08091C9
:100C5000E30087FD02C081E001C083E080930302CE
:100C6000E0D18091E10083FF27C08091E20083FF03
:100C700023C08091E100877F8093E10082E0809330
:100C800003021092FF018091E1008E7F8093E100CA
:100C90008091E2008E7F8093E2008091E20080618B
:100CA0008093E20042E060E080E068DE8091F00046
:100CB00088608093F000B5D1FF91EF91BF91AF9123
:100CC0009F918F917F916F915F914F913F912F9164
:100CD0000F900FBE0F901F9018951F920F920FB696
:100CE0000F9211242F933F934F935F936F937F93B2
:100CF0008F939F93AF93BF93CF93DF93EF93FF9324
:100D0000C091E900CF708091EC00D82FD17080FDA8
:100D1000D0E81092E9008091F000877F8093F00086
:100D200078941ED01092E9008091F0008860809342
:100D3000F000CD2BCF70C093E900FF91EF91DF91D0
:100D4000CF91BF91AF919F918F917F916F915F9163
:100D50004F913F912F910F900FBE0F901F901895BC
:100D60001F93CF93DF93CDB7DEB7AA970FB6F89452
:100D7000DEBF0FBECDBFE4E0F2E08091F1008193D1
:100D800022E0EC30F207C9F7BEDB8091E80083FF78
:100D900030C18091040290910502953009F483C01E
:100DA00030F49130A9F168F0933091F122C198307C
:100DB00009F4EFC0993009F4FBC0963009F019C16D
:100DC00094C0803821F0823809F013C108C08091A6
:100DD000000290910102992389F082600FC08091F6
:100DE00008028F70873008F004C18093E900809179
:100DF000EB0085FB882780F91092E9009091E800CC
:100E0000977F9093E8008093F1001092F100CCC09E
:100E1000282F2D7F09F0EDC0882319F0823061F072
:100E2000E8C080910602813009F0E3C0933009F0F8
:100E300080E0809301022EC08091060281112AC0B9
:100E4000809108028F702FEF280F263008F0D1C054
:100E50008093E9002091EB0020FF1CC0933021F427
:100E60008091EB00806214C09091EB0090619093B0
:100E7000EB0021E030E0A90102C0440F551F8A9524
:100E8000E2F74093EA001092EA008091EB0088605C
:100E90008093EB001092E9008091E800877F8093B7
:100EA000E800A1DDA6C08111A4C0109106021F7741
:100EB0008091E3008078812B8093E3008091E800AB
:100EC000877F8093E8008FDD8091E80080FFFCCF72
:100ED0008091E30080688093E300111102C082E0FA
:100EE00001C083E08093030284C08058823008F000
:100EF00080C080910602909107028C3D53E09507D7
:100F000071F583E08A838AE289834FB7F894DE0122
:100F1000139620E03EE051E2E32FF0E050935700BB
:100F2000E49120FF03C0E295EF703F5FEF708E2FDA
:100F300090E0EA3010F0C79601C0C0968D939D9363
:100F40002F5F243149F74FBF8091E800877F80935E
:100F5000E8006AE270E0CE01019611DC14C06091F5
:100F6000080270910902AE014F5F5F4F8FDBBC0139
:100F7000892B09F43EC09091E800977F9093E80098
:100F800089819A819ADC8091E8008B778093E800D0
:100F900030C0803871F58091E800877F8093E80049
:100FA0008091FF018093F1008091E8008E7777CFE8
:100FB00081111FC080910602909107029927029724
:100FC000C4F48091E800877F8093E8008091060256
:100FD0008093FF0108DD8091FF01811106C080919F
:100FE000E30087FD02C081E001C084E0809303023A
:100FF00075DA8091E80083FF0AC08091E800877F5E
:101000008093E8008091EB0080628093EB00AA96C9
:101010000FB6F894DEBF0FBECDBFDF91CF911F9109
:1010200008950895CF9380910302882399F0C09189
:10103000E900CF709091EC00892F817090FD80E8DD
:10104000C82B1092E9008091E80083FD89DECF7003
:10105000C093E900CF910895AA1BBB1B51E107C0C3
:10106000AA1FBB1FA617B70710F0A61BB70B881F38
:10107000991F5A95A9F780959095BC01CD010895C7
:10108000AEE0B0E0E5E4F8E0AAC20D891E8986E092
:101090008C831A8309838FEF9FE79E838D83AE0134
:1010A000475E5F4F6F89788DCE01019608D0EF8142
:1010B000F885E00FF11F10822E96E4E0ACC2ABE0A1
:1010C000B0E0E4E6F8E07DC26C017B018A01FC013E
:1010D00017821682838181FFBFC1CE0101963C0138
:1010E000F6019381F70193FD859193FF81917F0133
:1010F000882309F4ADC1853239F493FD859193FFBE
:1011000081917F01853221F4B60190E0C0D1E8CF12
:10111000912C212C312CFFE1F315D8F08B3279F092
:1011200038F4803279F08332A1F4232D20611DC080
:101130008D3261F0803369F4232D216016C0832D38
:101140008260382EE32DE4603E2E2AC0F32DF86035
:101150001DC037FC2DC020ED280F2A3040F08E3204
:10116000B9F436FC75C1232D2064322E19C036FE29
:1011700006C08AE0989E200D1124922E11C0EAE04C
:101180002E9E200D1124222EF32DF0623F2E08C03A
:101190008C3621F4832D8068382E02C0883641F4C5
:1011A000F70193FD859193FF81917F018111B3CF69
:1011B000982F9F7D9554933028F40C5F1F4F9FE329
:1011C00099830DC0833631F0833771F0833509F090
:1011D00055C020C0F801808189830E5F1F4F88248D
:1011E0008394912C530112C02801F2E04F0E511C40
:1011F000F801A080B18036FE03C0692D70E002C006
:101200006FEF7FEFC50138D14C018201F32DFF77DD
:101210003F2E15C0280122E0420E511CF801A0808B
:10122000B18036FE03C0692D70E002C06FEF7FEF22
:10123000C50117D14C01F32DF0683F2E820133FC1C
:1012400019C0822D90E088169906A0F4B60180E2BC
:1012500090E01DD12A94F5CFF50137FC859137FE3A
:1012600081915F01B60190E012D121102A9421E012
:10127000821A91088114910479F7E1C0843611F043
:10128000893639F5F80137FE07C0608171818281A6
:1012900093810C5F1F4F08C060817181072E000C85
:1012A000880B990B0E5F1F4FF32DFF763F2E97FF94
:1012B00009C090958095709561957F4F8F4F9F4F96
:1012C000F0683F2E2AE030E0A3011DD1882E861859
:1012D00044C0853731F4232D2F7EB22E2AE030E032
:1012E00025C0932D997FB92E8F36C1F018F488351B
:1012F00079F0AEC0803719F0883721F0A9C0E92F06
:10130000E061BE2EB4FE0DC0FB2DF460BF2E09C0FF
:1013100034FE0AC0292F2660B22E06C028E030E035
:1013200005C020E130E002C020E132E0F801B7FE64
:1013300007C060817181828193810C5F1F4F06C05D
:101340006081718180E090E00E5F1F4FA301DBD0D0
:10135000882E8618FB2DFF773F2E36FE0DC0232DDD
:101360002E7FA22E891458F434FE0BC032FC09C023
:10137000832D8E7EA82E05C0B82CA32C03C0B82CBC
:1013800001C0B92CA4FE0FC0FE01E80DF11D808143
:10139000803321F49A2D997EA92E09C0A2FE06C0A1
:1013A000B394B39404C08A2D867809F0B394A3FC57
:1013B00010C0A0FE06C0B21480F4280C922C9B181A
:1013C0000DC0B21458F4B60180E290E060D0B3943E
:1013D000F8CFB21418F42B1802C0982C212CA4FEBC
:1013E0000FC0B60180E390E052D0A2FE16C0A1FC6F
:1013F00003C088E790E002C088E590E0B6010CC029
:101400008A2D867851F0A1FE02C08BE201C080E2F5
:10141000A7FC8DE2B60190E03AD0891430F4B60111
:1014200080E390E034D09A94F8CF8A94F301E80DE9
:10143000F11D8081B60190E02AD08110F6CF2220E4
:1014400009F44ECEB60180E290E021D02A94F7CF85
:10145000F6018681978102C08FEF9FEF2B96E2E124
:10146000CCC0FC010590615070400110D8F7809508
:1014700090958E0F9F1F0895FC0161507040019060
:101480000110D8F7809590958E0F9F1F08950F93A8
:101490001F93CF93DF93FB01238121FD03C08FEFC7
:1014A0009FEF2CC022FF16C04681578124813581D1
:1014B0004217530744F4A081B1819D012F5F3F4F34
:1014C000318320838C93268137812F5F3F4F378371
:1014D000268314C08B01EC01FB010084F185E02D13
:1014E0000995892BE1F6D80116968D919C91179755
:1014F000019617969C938E931697CE01DF91CF910C
:101500001F910F910895FA01AA27283051F1203137
:1015100081F1E8946F936E7F6E5F7F4F8F4F9F4F87
:10152000AF4FB1E03ED0B4E03CD0670F781F891FC9
:101530009A1FA11D680F791F8A1F911DA11D6A0F97
:10154000711D811D911DA11D20D009F468943F914A
:101550002AE0269F11243019305D3193DEF6CF0149
:101560000895462F4770405D4193B3E00FD0C9F70F
:10157000F6CF462F4F70405D4A3318F0495D31FD7C
:101580004052419302D0A9F7EACFB4E0A6959795CF
:10159000879577956795BA95C9F7009761057105A5
:1015A00008959B01AC010A2E0694579547953795EF
:1015B0002795BA95C9F7620F731F841F951FA01D49
:1015C00008952F923F924F925F926F927F928F92E7
:1015D0009F92AF92BF92CF92DF92EF92FF920F93C2
:1015E0001F93CF93DF93CDB7DEB7CA1BDB0B0FB6CC
:1015F000F894DEBF0FBECDBF09942A883988488889
:101600005F846E847D848C849B84AA84B984C8841E
:10161000DF80EE80FD800C811B81AA81B981CE0F15
:10162000D11D0FB6F894DEBF0FBECDBFED010895FA
:04163000F894FFCF5C
:0E16340000000000000008050025640A0D00FB
:00000001FF
