:100000000C9456000C9473000C9473000C947300C1
:100010000C9473000C9473000C9473000C94730094
:100020000C9473000C9473000C9473000C94730084
:100030000C9473000C9473000C9473000C94730074
:100040000C9473000C9473000C9473000C94730064
:100050000C9473000C9496000C9473000C94730031
:100060000C9473000C9425020C945C020C947300A5
:100070000C9473000C9473000C9473000C94730034
:100080000C9473000C9473000C9473000C94730024
:100090000C9473000C9473000C9473000C94730014
:1000A0000C9473000C9473000C94730011241FBE05
:1000B000CFEFDAE0DEBFCDBF11E0A0E0B1E0EAE3D0
:1000C000FFE002C005900D92A830B107D9F721E0FA
:1000D000A8E0B1E001C01D92A73BB207E1F70E9482
:1000E000A7010C949B070C94000080E480937C0093
:1000F00087E880937A0080E880937B0081E080939A
:100100007E000895EAE7F0E080818064808380814A
:1001100086FDFDCF809178009091790008950E942E
:100120008200969587959695879508951F920F92D0
:100130000FB60F9211248F939F9380911401909189
:10014000150101969093150180931401809111017E
:100150009091120101969093120180931101809168
:10016000140190911501499760F0809114019091CC
:1001700015014997909315018093140181E08093B4
:1001800013018091110190911201C29760F080914A
:10019000110190911201C297909312018093110165
:1001A00081E0809310019F918F910F900FBE0F906F
:1001B0001F90189580913601813039F018F0823007
:1001C00071F0089510921E0108951B990CC0809142
:1001D0001F0190E090930D0180930C010895809190
:1001E0001F0180930B010895813049F018F082308F
:1001F00069F0089510920D0110920C0108958FEF8F
:1002000090E090930D0180930C01089580910C0172
:1002100090910D018230910530F421E030E030936F
:100220000101209300018F3F910530F02FEF3FEF48
:10023000309301012093000120911001222361F0ED
:10024000109210012091000130910101820F931F43
:1002500090930D0180930C01089590913501923097
:10026000E1F018F4913071F004C0933021F1943032
:10027000A1F18C3309F041C081E0809335011092E7
:100280000A01089580933401803118F010923501ED
:10029000089582E08093350108958093360180911E
:1002A0003401882321F083E080933501089584E0B0
:1002B000809335010895E0910A0191E09E0F90939B
:1002C0000A01F0E0E15EFE4F8083809134019813D3
:1002D00014C084E0809335010895109235018E3367
:1002E00019F40E94DA0008958091080190910901A3
:1002F00001969093090180930801089582E084BDDE
:1003000093E095BD80936E0089EF87BD7894089542
:1003100082E88093C00084E08093C1008EEF8093D8
:10032000D1001092CF0008950E9475000E947E01B6
:100330000E94880120E034E244EF50E060E472E47F
:100340008FE090E00E948D023F9A2B9A08950E94C0
:1003500094010F2EF2E0CF2EF1E0DF2EF02D0F2EC4
:10036000FFE2EF2EF1E0FF2EF02DAA24AA94B12C8B
:100370000CE011E0CFECD0E00E940E03882321F0C6
:100380000E94F2020E942D011B9957C08091130117
:10039000882309F456C0109213010E948F0090E048
:1003A00020910E0130910F018217930781F10E9475
:1003B0008F0090E090930F0180930E010F2EF4E6D2
:1003C0009F2EF02D0E948F0020910C0130910D0185
:1003D000280F311D30930D0120930C019A94911038
:1003E000F1CF3695279536952795ABE7B4E10E9476
:1003F000A204969587958F3F910528F490930D015F
:1004000080930C0104C0B0920D01A0920C01809168
:100410000D018F9380910C018F93DF92CF92FF9209
:10042000EF920E94B104C7010E9439030F900F9010
:100430000F900F900F900F9004C080910B010E94BD
:10044000F400F8018081888397CF1F920F920FB636
:100450000F9211242F933F938F939F93EF93FF93CA
:1004600080911A018F5F80931A0180911C019091F5
:100470001D019C012F5F3F4F30931D0120931C01F4
:100480002091CE00FC01E95CFE4F208380911C018D
:1004900090911D018034910520F010921D01109261
:1004A0001C01FF91EF919F918F913F912F910F90A0
:1004B0000FBE0F901F9018951F920F920FB60F92BC
:1004C00011248F93EF93FF9380911601811106C041
:1004D000E9ECF0E080818F7D808317C08091160168
:1004E000815080931601E091190181E08E0F809375
:1004F0001901F0E0E958FE4F80818093CE00809191
:100500001901803410F010921901FF91EF918F9131
:100510000F900FBE0F901F901895CF92DF92EF9221
:10052000FF926B017C01C11482ECD80681E0E806E1
:10053000F10420F1E8ECF0E0808182608083CA0160
:10054000B901689412F896958795779567951694F2
:10055000D1F7A70196010E948004CA01B9010E9447
:10056000F20320E030E040E05FE30E9456030E9487
:10057000C3037093CD006093CC0023C0E8ECF0E09F
:1005800080818D7F8083CA01B901689413F89695A4
:100590008795779567951694D1F7A70196010E94E4
:1005A0008004CA01B9010E94F20320E030E040E07B
:1005B0005FE30E9456030E94C3037093CD006093D3
:1005C000CC00E9ECF0E080818861808378948081C0
:1005D00080688083808180628083FF90EF90DF90CD
:1005E000CF90089580911A018823B1F0F8948091FA
:1005F0001A01815080931A017894E0911B0191E0D7
:100600009E0F90931B01F0E0E95CFE4F80819034D7
:1006100020F010921B01089580E0089580911A0146
:10062000089590911601903410F5909116019F5FF6
:10063000909316012091170130911801A9014F5F85
:100640005F4F5093180140931701F901E958FE4F8D
:1006500080834034510520F0109218011092170148
:10066000E9ECF0E080818062808380E0089581E0A1
:1006700008950F931F93CF93FC018081882379F015
:100680008F01C0E00E94110381110BC0CF5FF80100
:10069000EC0FF11D80818111F5CF8C2F03C080E01C
:1006A00001C08C2FCF911F910F9108955058BB27F7
:1006B000AA270E946E030C9446040E94380438F066
:1006C0000E943F0420F039F49F3F19F426F40C9463
:1006D00035040EF4E095E7FB0C942F04E92F0E94FB
:1006E000570458F3BA17620773078407950720F079
:1006F00079F4A6F50C9479040EF4E0950B2EBA2F3C
:10070000A02D0B01B90190010C01CA01A001112417
:10071000FF27591B99F0593F50F4503E68F11A16C3
:10072000F040A22F232F342F4427585FF3CF469554
:1007300037952795A795F0405395C9F77EF41F1676
:10074000BA0B620B730B840BBAF09150A1F0FF0F40
:10075000BB1F661F771F881FC2F70EC0BA0F621F2C
:10076000731F841F48F4879577956795B795F7951C
:100770009E3F08F0B0CF9395880F08F09927EE0FB1
:100780009795879508950E945F0488F09F5798F089
:10079000B92F9927B751B0F0E1F0660F771F881F86
:1007A000991F1AF0BA95C9F714C0B13091F00E94A0
:1007B0007904B1E008950C947904672F782F882785
:1007C000B85F39F0B93FCCF3869577956795B395C7
:1007D000D9F73EF490958095709561957F4F8F4F36
:1007E0009F4F0895E89409C097FB3EF4909580953B
:1007F000709561957F4F8F4F9F4F9923A9F0F92FE7
:1008000096E9BB279395F695879577956795B79564
:10081000F111F8CFFAF4BB0F11F460FF1BC06F5F4A
:100820007F4F8F4F9F4F16C0882311F096E911C05C
:10083000772321F09EE8872F762F05C0662371F07D
:1008400096E8862F70E060E02AF09A95660F771F91
:10085000881FDAF7880F9695879597F9089597F985
:100860009F6780E870E060E008959FEF80EC089556
:1008700000240A941616170618060906089500247F
:100880000A9412161306140605060895092E0394F9
:10089000000C11F4882352F0BB0F40F4BF2B11F46D
:1008A00060FF04C06F5F7F4F8F4F9F4F089557FDCC
:1008B0009058440F551F59F05F3F71F04795880FCE
:1008C00097FB991F61F09F3F79F087950895121665
:1008D00013061406551FF2CF4695F1DF08C0161611
:1008E00017061806991FF1CF8695710561050894C2
:1008F0000895E894BB2766277727CB0197F90895D9
:10090000A1E21A2EAA1BBB1BFD010DC0AA1FBB1F13
:10091000EE1FFF1FA217B307E407F50720F0A21B85
:10092000B30BE40BF50B661F771F881F991F1A94F2
:1009300069F760957095809590959B01AC01BD011C
:10094000CF010895A29FB001B39FC001A39F700D76
:10095000811D1124911DB29F700D811D1124911DC7
:100960000895AEE0B0E0E7EBF4E00C9472070D8977
:100970001E8986E08C831A8309838FEF9FE79E830D
:100980008D83AE01475E5F4F6F89788DCE010196F2
:100990000E94D304EF81F885E00FF11F10822E969C
:1009A000E4E00C948E07ABE0B0E0E9EDF4E00C94E9
:1009B00064076C017B018A01FC0117821682838126
:1009C00081FFCCC1CE0101963C01F6019381F70174
:1009D00093FD859193FF81917F01882309F4BAC12A
:1009E000853239F493FD859193FF81917F018532A2
:1009F00029F4B60190E00E94CA06E7CF912C212C81
:100A0000312CFFE1F315D8F08B3279F038F48032D5
:100A100079F08332A1F4232D20611DC08D3261F065
:100A2000803369F4232D216016C0832D8260382E17
:100A3000E32DE4603E2E2AC0F32DF8601DC037FC84
:100A40002DC020ED280F2A3040F08E32B9F436FC4C
:100A500081C1232D2064322E19C036FE06C08AE0E3
:100A6000989E200D1124922E11C0EAE02E9E200D9A
:100A70001124222EF32DF0623F2E08C08C3621F473
:100A8000832D8068382E02C0883641F4F70193FD2B
:100A9000859193FF81917F018111B3CF982F9F7D25
:100AA0009554933028F40C5F1F4F9FE399830DC03A
:100AB000833631F0833771F0833509F059C021C096
:100AC000F801808189830E5F1F4F88248394912CC5
:100AD000530113C02801F2E04F0E511CF801A08011
:100AE000B18036FE03C0692D70E002C06FEF7FEF6A
:100AF000C5010E94BF064C018201F32DFF773F2EF6
:100B000016C0280122E0420E511CF801A080B180DD
:100B100036FE03C0692D70E002C06FEF7FEFC501A4
:100B20000E94B4064C01F32DF0683F2E820133FC85
:100B30001BC0822D90E088169906B0F4B60180E2C1
:100B400090E00E94CA062A94F4CFF50137FC859103
:100B500037FE81915F01B60190E00E94CA06211024
:100B60002A9421E0821A91088114910471F7E8C057
:100B7000843611F0893641F5F80137FE07C06081EF
:100B80007181828193810C5F1F4F08C060817181E8
:100B9000072E000C880B990B0E5F1F4FF32DFF766D
:100BA0003F2E97FF09C090958095709561957F4F76
:100BB0008F4F9F4FF0683F2E2AE030E0A3010E9444
:100BC0000607882E861845C0853731F4232D2F7EE1
:100BD000B22E2AE030E025C0932D997FB92E8F36B2
:100BE000C1F018F4883579F0B5C0803719F088372E
:100BF00021F0B0C0E92FE061BE2EB4FE0DC0FB2D88
:100C0000F460BF2E09C034FE0AC0292F2660B22E20
:100C100006C028E030E005C020E130E002C020E15D
:100C200032E0F801B7FE07C0608171818281938153
:100C30000C5F1F4F06C06081718180E090E00E5F05
:100C40001F4FA3010E940607882E8618FB2DFF77F1
:100C50003F2E36FE0DC0232D2E7FA22E891458F470
:100C600034FE0BC032FC09C0832D8E7EA82E05C039
:100C7000B82CA32C03C0B82C01C0B92CA4FE0FC003
:100C8000FE01E80DF11D8081803321F49A2D997EBB
:100C9000A92E09C0A2FE06C0B394B39404C08A2D45
:100CA000867809F0B394A3FC11C0A0FE06C0B2146C
:100CB00088F4280C922C9B180EC0B21460F4B60174
:100CC00080E290E00E94CA06B394F7CFB21418F401
:100CD0002B1802C0982C212CA4FE10C0B60180E372
:100CE00090E00E94CA06A2FE17C0A1FC03C088E7DC
:100CF00090E002C088E590E0B6010CC08A2D8678AD
:100D000059F0A1FE02C08BE201C080E2A7FC8DE297
:100D1000B60190E00E94CA06891438F4B60180E357
:100D200090E00E94CA069A94F7CF8A94F301E80DE6
:100D3000F11D8081B60190E00E94CA068110F5CFB6
:100D4000222009F442CEB60180E290E00E94CA0659
:100D50002A94F6CFF6018681978102C08FEF9FEF2C
:100D60002B96E2E10C948007FC01059061507040E5
:100D70000110D8F7809590958E0F9F1F0895FC0164
:100D80006150704001900110D8F7809590958E0FBA
:100D90009F1F08950F931F93CF93DF93FB01238130
:100DA00021FD03C08FEF9FEF2CC022FF16C04681AC
:100DB0005781248135814217530744F4A081B181C2
:100DC0009D012F5F3F4F318320838C932681378194
:100DD0002F5F3F4F3783268314C08B01EC01FB014B
:100DE0000084F185E02D0995892BE1F6D80116964E
:100DF0008D919C911797019617969C938E931697B9
:100E0000CE01DF91CF911F910F910895FA01AA278A
:100E1000283051F1203181F1E8946F936E7F6E5F3D
:100E20007F4F8F4F9F4FAF4FB1E03ED0B4E03CD0EB
:100E3000670F781F891F9A1FA11D680F791F8A1FCE
:100E4000911DA11D6A0F711D811D911DA11D20D035
:100E500009F468943F912AE0269F11243019305DEF
:100E60003193DEF6CF010895462F4770405D4193E0
:100E7000B3E00FD0C9F7F6CF462F4F70405D4A332D
:100E800018F0495D31FD4052419302D0A9F7EACFF5
:100E9000B4E0A6959795879577956795BA95C9F724
:100EA00000976105710508959B01AC010A2E069417
:100EB0005795479537952795BA95C9F7620F731FD0
:100EC000841F951FA01D08952F923F924F925F920D
:100ED0006F927F928F929F92AF92BF92CF92DF924A
:100EE000EF92FF920F931F93CF93DF93CDB7DEB7AF
:100EF000CA1BDB0B0FB6F894DEBF0FBECDBF099443
:100F00002A88398848885F846E847D848C849B8499
:100F1000AA84B984C884DF80EE80FD800C811B81A7
:100F2000AA81B981CE0FD11D0FB6F894DEBF0FBED6
:0A0F3000CDBFED010895F894FFCF46
:080F3A00050025640A0D00000A
:00000001FF
