:100000000C9456000C9473000C9473000C947300C1
:100010000C9473000C9473000C9473000C94730094
:100020000C9473000C9473000C9473000C94730084
:100030000C9473000C9473000C9473000C94730074
:100040000C9473000C9473000C9473000C94730064
:100050000C9473000C9496000C9473000C94730031
:100060000C9473000C94CA010C9401020C9473005C
:100070000C9473000C9473000C9473000C94730034
:100080000C9473000C9473000C9473000C94730024
:100090000C9473000C9473000C9473000C94730014
:1000A0000C9473000C9473000C94730011241FBE05
:1000B000CFEFDAE0DEBFCDBF11E0A0E0B1E0ECE2CF
:1000C000FEE002C005900D92A630B107D9F721E0FD
:1000D000A6E0B1E001C01D92A03BB207E1F70E948B
:1000E00084010C9414070C94000080E480937C003D
:1000F00087E880937A0080E880937B0081E080939A
:100100007E000895EAE7F0E080818064808380814A
:1001100086FDFDCF809178009091790008950E942E
:100120008200969587959695879508951F920F92D0
:100130000FB60F9211248F939F9380910D01909190
:100140000E01019690930E0180930D0180910D0197
:1001500090910E01499760F080910D0190910E01F0
:10016000499790930E0180930D0181E080930C01DB
:100170009F918F910F900FBE0F901F901895EF9247
:10018000FF920F931F93CF93DF9300D000D01F9265
:10019000CDB7DEB780912F01882319F0813021F08F
:1001A00010C01092170111C080911801909109019F
:1001B000891719F080930A0104C00E948F00809370
:1001C0000A0180911701811119C08CE3898381E0B4
:1001D0008A831B82809109018C838EE38D838E013B
:1001E0000F5F1F4F7E0186E0E80EF11CF801819140
:1001F0008F010E94B6020E151F05C1F70F900F90D8
:100200000F900F900F90DF91CF911F910F91FF9062
:10021000EF90089590912E019230E1F018F4913012
:1002200071F004C0933021F19430A1F18C3309F0C6
:1002300041C081E080932E011092080108958093BF
:100240002D01803118F010922E01089582E08093E4
:100250002E01089580932F0180912D01882321F094
:1002600083E080932E01089584E080932E01089509
:10027000E091080191E09E0F90930801F0E0E85EA4
:10028000FE4F808380912D01981314C084E08093E9
:100290002E01089510922E018E3319F40E94BF0092
:1002A00008958091060190910701019690930701AE
:1002B00080930601089582E084BD93E095BD80930C
:1002C0006E0089EF87BD7894089582E88093C0001E
:1002D00084E08093C1008EEF8093D1001092CF0014
:1002E00008950E9475000E945B010E94650120E054
:1002F00034E244EF50E060E472E48FE090E00E946A
:1003000032023F9A2B9A08950E9471010F2EF0E05D
:10031000EF2EF1E0FF2EF02D08E211E0CFECD0E05F
:100320001B9932C00E94B302882321F00E949702D9
:100330000E940A0180910C01882341F110920C0166
:100340000E948F0090910B01891749F00E948F0045
:1003500080930B010E948F0080930A0104C00E94C9
:100360008F008093090180910A011F928F93FF9261
:10037000EF921F930F930E942A040F900F900F90FB
:100380000F900F900F9002C010920A0180910A0105
:100390008883C6CF1F920F920FB60F9211242F930E
:1003A0003F938F939F93EF93FF93809113018F5F00
:1003B0008093130180911501909116019C012F5F8C
:1003C0003F4F30931601209315012091CE00FC0180
:1003D000E05DFE4F208380911501909116018034DD
:1003E000910520F01092160110921501FF91EF91E6
:1003F0009F918F913F912F910F900FBE0F901F9063
:1004000018951F920F920FB60F9211248F93EF93AE
:10041000FF9380910F01811106C0E9ECF0E080812B
:100420008F7D808317C080910F01815080930F01D1
:10043000E091120181E08E0F80931201F0E0E0590B
:10044000FE4F80818093CE0080911201803410F0A5
:1004500010921201FF91EF918F910F900FBE0F90AC
:100460001F901895CF92DF92EF92FF926B017C0163
:10047000C11482ECD80681E0E806F10420F1E8EC32
:10048000F0E0808182608083CA01B901689412F82B
:1004900096958795779567951694D1F7A70196015C
:1004A0000E940804CA01B9010E947A0320E030E0EA
:1004B00040E05FE30E94DE020E944B037093CD0098
:1004C0006093CC0023C0E8ECF0E080818D7F8083D6
:1004D000CA01B901689413F8969587957795679541
:1004E0001694D1F7A70196010E940804CA01B90128
:1004F0000E947A0320E030E040E05FE30E94DE02E9
:100500000E944B037093CD006093CC00E9ECF0E0C7
:1005100080818861808378948081806880838081F5
:1005200080628083FF90EF90DF90CF90089580915C
:1005300013018823B1F0F8948091130181508093C6
:1005400013017894E091140191E09E0F90931401AF
:10055000F0E0E05DFE4F8081903420F010921401B5
:10056000089580E0089580911301089590910F01FE
:10057000903410F590910F019F5F90930F0120919F
:10058000100130911101A9014F5F5F4F509311018C
:1005900040931001F901E059FE4F8083403451052A
:1005A00020F01092110110921001E9ECF0E080812E
:1005B0008062808380E0089581E008955058BB27D1
:1005C000AA270E94F6020C94CE030E94C00338F0C2
:1005D0000E94C70320F039F49F3F19F426F40C94CD
:1005E000BD030EF4E095E7FB0C94B703E92F0E94DE
:1005F000DF0358F3BA17620773078407950720F0E3
:1006000079F4A6F50C9401040EF4E0950B2EBA2FA4
:10061000A02D0B01B90190010C01CA01A001112408
:10062000FF27591B99F0593F50F4503E68F11A16B4
:10063000F040A22F232F342F4427585FF3CF469545
:1006400037952795A795F0405395C9F77EF41F1667
:10065000BA0B620B730B840BBAF09150A1F0FF0F31
:10066000BB1F661F771F881FC2F70EC0BA0F621F1D
:10067000731F841F48F4879577956795B795F7950D
:100680009E3F08F0B0CF9395880F08F09927EE0FA2
:100690009795879508950E94E70388F09F5798F0F3
:1006A000B92F9927B751B0F0E1F0660F771F881F77
:1006B000991F1AF0BA95C9F714C0B13091F00E9491
:1006C0000104B1E008950C940104672F782F882766
:1006D000B85F39F0B93FCCF3869577956795B395B8
:1006E000D9F73EF490958095709561957F4F8F4F27
:1006F0009F4F0895E89409C097FB3EF4909580952C
:10070000709561957F4F8F4F9F4F9923A9F0F92FD7
:1007100096E9BB279395F695879577956795B79555
:10072000F111F8CFFAF4BB0F11F460FF1BC06F5F3B
:100730007F4F8F4F9F4F16C0882311F096E911C04D
:10074000772321F09EE8872F762F05C0662371F06E
:1007500096E8862F70E060E02AF09A95660F771F82
:10076000881FDAF7880F9695879597F9089597F976
:100770009F6780E870E060E008959FEF80EC089547
:1007800000240A9416161706180609060895002470
:100790000A9412161306140605060895092E0394EA
:1007A000000C11F4882352F0BB0F40F4BF2B11F45E
:1007B00060FF04C06F5F7F4F8F4F9F4F089557FDBD
:1007C0009058440F551F59F05F3F71F04795880FBF
:1007D00097FB991F61F09F3F79F087950895121656
:1007E00013061406551FF2CF4695F1DF08C0161602
:1007F00017061806991FF1CF8695710561050894B3
:100800000895E894BB2766277727CB0197F90895C9
:10081000A1E21A2EAA1BBB1BFD010DC0AA1FBB1F04
:10082000EE1FFF1FA217B307E407F50720F0A21B76
:10083000B30BE40BF50B661F771F881F991F1A94E3
:1008400069F760957095809590959B01AC01BD010D
:10085000CF010895AEE0B0E0E0E3F4E00C94EB06E5
:100860000D891E8986E08C831A8309838FEF9FE7A9
:100870009E838D83AE01475E5F4F6F89788DCE0179
:1008800001960E944C04EF81F885E00FF11F108261
:100890002E96E4E00C940707ABE0B0E0E2E5F4E06C
:1008A0000C94DD066C017B018A01FC011782168223
:1008B000838181FFCCC1CE0101963C01F601938179
:1008C000F70193FD859193FF81917F01882309F4BE
:1008D000BAC1853239F493FD859193FF81917F01EF
:1008E000853229F4B60190E00E944306E7CF912CAF
:1008F000212C312CFFE1F315D8F08B3279F038F44C
:10090000803279F08332A1F4232D20611DC08D3215
:1009100061F0803369F4232D216016C0832D82603D
:10092000382EE32DE4603E2E2AC0F32DF8601DC062
:1009300037FC2DC020ED280F2A3040F08E32B9F45C
:1009400036FC81C1232D2064322E19C036FE06C02C
:100950008AE0989E200D1124922E11C0EAE02E9E6E
:10096000200D1124222EF32DF0623F2E08C08C366C
:1009700021F4832D8068382E02C0883641F4F701B7
:1009800093FD859193FF81917F018111B3CF982FC2
:100990009F7D9554933028F40C5F1F4F9FE39983FC
:1009A0000DC0833631F0833771F0833509F059C0BB
:1009B00021C0F801808189830E5F1F4F88248394B2
:1009C000912C530113C02801F2E04F0E511CF80185
:1009D000A080B18036FE03C0692D70E002C06FEFC9
:1009E0007FEFC5010E9438064C018201F32DFF778D
:1009F0003F2E16C0280122E0420E511CF801A080B3
:100A0000B18036FE03C0692D70E002C06FEF7FEF4A
:100A1000C5010E942D064C01F32DF0683F2E820186
:100A200033FC1BC0822D90E088169906B0F4B60105
:100A300080E290E00E9443062A94F4CFF50137FC4F
:100A4000859137FE81915F01B60190E00E944306D7
:100A500021102A9421E0821A91088114910471F7DF
:100A6000E8C0843611F0893641F5F80137FE07C039
:100A700060817181828193810C5F1F4F08C060810A
:100A80007181072E000C880B990B0E5F1F4FF32D01
:100A9000FF763F2E97FF09C09095809570956195E0
:100AA0007F4F8F4F9F4FF0683F2E2AE030E0A30129
:100AB0000E947F06882E861845C0853731F4232D85
:100AC0002F7EB22E2AE030E025C0932D997FB92EDB
:100AD0008F36C1F018F4883579F0B5C0803719F039
:100AE000883721F0B0C0E92FE061BE2EB4FE0DC002
:100AF000FB2DF460BF2E09C034FE0AC0292F2660EA
:100B0000B22E06C028E030E005C020E130E002C08F
:100B100020E132E0F801B7FE07C060817181828177
:100B200093810C5F1F4F06C06081718180E090E06F
:100B30000E5F1F4FA3010E947F06882E8618FB2D93
:100B4000FF773F2E36FE0DC0232D2E7FA22E891457
:100B500058F434FE0BC032FC09C0832D8E7EA82EC3
:100B600005C0B82CA32C03C0B82C01C0B92CA4FE1E
:100B70000FC0FE01E80DF11D8081803321F49A2D14
:100B8000997EA92E09C0A2FE06C0B394B39404C0F6
:100B90008A2D867809F0B394A3FC11C0A0FE06C08C
:100BA000B21488F4280C922C9B180EC0B21460F476
:100BB000B60180E290E00E944306B394F7CFB214EE
:100BC00018F42B1802C0982C212CA4FE10C0B601DA
:100BD00080E390E00E944306A2FE17C0A1FC03C080
:100BE00088E790E002C088E590E0B6010CC08A2D4D
:100BF000867859F0A1FE02C08BE201C080E2A7FC1A
:100C00008DE2B60190E00E944306891438F4B601E3
:100C100080E390E00E9443069A94F7CF8A94F30110
:100C2000E80DF11D8081B60190E00E94430681101D
:100C3000F5CF222009F442CEB60180E290E00E9476
:100C400043062A94F6CFF6018681978102C08FEF82
:100C50009FEF2B96E2E10C94F906FC0105906150A0
:100C600070400110D8F7809590958E0F9F1F0895C2
:100C7000FC016150704001900110D8F7809590956B
:100C80008E0F9F1F08950F931F93CF93DF93FB0148
:100C9000238121FD03C08FEF9FEF2CC022FF16C0E0
:100CA00046815781248135814217530744F4A0813E
:100CB000B1819D012F5F3F4F318320838C9326812B
:100CC00037812F5F3F4F3783268314C08B01EC01A0
:100CD000FB010084F185E02D0995892BE1F6D8010F
:100CE00016968D919C911797019617969C938E93CB
:100CF0001697CE01DF91CF911F910F910895FA01C0
:100D0000AA27283051F1203181F1E8946F936E7F4A
:100D10006E5F7F4F8F4F9F4FAF4FB1E03ED0B4E03B
:100D20003CD0670F781F891F9A1FA11D680F791F7C
:100D30008A1F911DA11D6A0F711D811D911DA11D8D
:100D400020D009F468943F912AE0269F112430199D
:100D5000305D3193DEF6CF010895462F4770405D38
:100D60004193B3E00FD0C9F7F6CF462F4F70405DE7
:100D70004A3318F0495D31FD4052419302D0A9F742
:100D8000EACFB4E0A6959795879577956795BA953C
:100D9000C9F700976105710508959B01AC010A2E02
:100DA00006945795479537952795BA95C9F7620FD9
:100DB000731F841F951FA01D08952F923F924F927D
:100DC0005F926F927F928F929F92AF92BF92CF92DB
:100DD000DF92EF92FF920F931F93CF93DF93CDB7E4
:100DE000DEB7CA1BDB0B0FB6F894DEBF0FBECDBF5C
:100DF00009942A88398848885F846E847D848C842D
:100E00009B84AA84B984C884DF80EE80FD800C8135
:100E10001B81AA81B981CE0FD11D0FB6F894DEBF18
:0C0E20000FBECDBFED010895F894FFCF88
:060E2C0025640A0D000020
:00000001FF
